{
  "abi": [
    {
      "type": "constructor",
      "inputs": [
        {
          "name": "factory",
          "type": "address",
          "internalType": "contract IEscrowFactory"
        },
        {
          "name": "lop",
          "type": "address",
          "internalType": "contract IOrderMixin"
        },
        {
          "name": "initialOwner",
          "type": "address",
          "internalType": "address"
        }
      ],
      "stateMutability": "nonpayable"
    },
    {
      "type": "receive",
      "stateMutability": "payable"
    },
    {
      "type": "function",
      "name": "arbitraryCalls",
      "inputs": [
        {
          "name": "targets",
          "type": "address[]",
          "internalType": "address[]"
        },
        {
          "name": "arguments",
          "type": "bytes[]",
          "internalType": "bytes[]"
        }
      ],
      "outputs": [],
      "stateMutability": "nonpayable"
    },
    {
      "type": "function",
      "name": "cancel",
      "inputs": [
        {
          "name": "escrow",
          "type": "address",
          "internalType": "contract IEscrow"
        },
        {
          "name": "immutables",
          "type": "tuple",
          "internalType": "struct IBaseEscrow.Immutables",
          "components": [
            {
              "name": "orderHash",
              "type": "bytes32",
              "internalType": "bytes32"
            },
            {
              "name": "hashlock",
              "type": "bytes32",
              "internalType": "bytes32"
            },
            {
              "name": "maker",
              "type": "uint256",
              "internalType": "Address"
            },
            {
              "name": "taker",
              "type": "uint256",
              "internalType": "Address"
            },
            {
              "name": "token",
              "type": "uint256",
              "internalType": "Address"
            },
            {
              "name": "amount",
              "type": "uint256",
              "internalType": "uint256"
            },
            {
              "name": "safetyDeposit",
              "type": "uint256",
              "internalType": "uint256"
            },
            {
              "name": "timelocks",
              "type": "uint256",
              "internalType": "Timelocks"
            }
          ]
        }
      ],
      "outputs": [],
      "stateMutability": "nonpayable"
    },
    {
      "type": "function",
      "name": "deployDst",
      "inputs": [
        {
          "name": "dstImmutables",
          "type": "tuple",
          "internalType": "struct IBaseEscrow.Immutables",
          "components": [
            {
              "name": "orderHash",
              "type": "bytes32",
              "internalType": "bytes32"
            },
            {
              "name": "hashlock",
              "type": "bytes32",
              "internalType": "bytes32"
            },
            {
              "name": "maker",
              "type": "uint256",
              "internalType": "Address"
            },
            {
              "name": "taker",
              "type": "uint256",
              "internalType": "Address"
            },
            {
              "name": "token",
              "type": "uint256",
              "internalType": "Address"
            },
            {
              "name": "amount",
              "type": "uint256",
              "internalType": "uint256"
            },
            {
              "name": "safetyDeposit",
              "type": "uint256",
              "internalType": "uint256"
            },
            {
              "name": "timelocks",
              "type": "uint256",
              "internalType": "Timelocks"
            }
          ]
        },
        {
          "name": "srcCancellationTimestamp",
          "type": "uint256",
          "internalType": "uint256"
        }
      ],
      "outputs": [],
      "stateMutability": "payable"
    },
    {
      "type": "function",
      "name": "deploySrc",
      "inputs": [
        {
          "name": "immutables",
          "type": "tuple",
          "internalType": "struct IBaseEscrow.Immutables",
          "components": [
            {
              "name": "orderHash",
              "type": "bytes32",
              "internalType": "bytes32"
            },
            {
              "name": "hashlock",
              "type": "bytes32",
              "internalType": "bytes32"
            },
            {
              "name": "maker",
              "type": "uint256",
              "internalType": "Address"
            },
            {
              "name": "taker",
              "type": "uint256",
              "internalType": "Address"
            },
            {
              "name": "token",
              "type": "uint256",
              "internalType": "Address"
            },
            {
              "name": "amount",
              "type": "uint256",
              "internalType": "uint256"
            },
            {
              "name": "safetyDeposit",
              "type": "uint256",
              "internalType": "uint256"
            },
            {
              "name": "timelocks",
              "type": "uint256",
              "internalType": "Timelocks"
            }
          ]
        },
        {
          "name": "order",
          "type": "tuple",
          "internalType": "struct IOrderMixin.Order",
          "components": [
            {
              "name": "salt",
              "type": "uint256",
              "internalType": "uint256"
            },
            {
              "name": "maker",
              "type": "uint256",
              "internalType": "Address"
            },
            {
              "name": "receiver",
              "type": "uint256",
              "internalType": "Address"
            },
            {
              "name": "makerAsset",
              "type": "uint256",
              "internalType": "Address"
            },
            {
              "name": "takerAsset",
              "type": "uint256",
              "internalType": "Address"
            },
            {
              "name": "makingAmount",
              "type": "uint256",
              "internalType": "uint256"
            },
            {
              "name": "takingAmount",
              "type": "uint256",
              "internalType": "uint256"
            },
            {
              "name": "makerTraits",
              "type": "uint256",
              "internalType": "MakerTraits"
            }
          ]
        },
        {
          "name": "r",
          "type": "bytes32",
          "internalType": "bytes32"
        },
        {
          "name": "vs",
          "type": "bytes32",
          "internalType": "bytes32"
        },
        {
          "name": "amount",
          "type": "uint256",
          "internalType": "uint256"
        },
        {
          "name": "takerTraits",
          "type": "uint256",
          "internalType": "TakerTraits"
        },
        {
          "name": "args",
          "type": "bytes",
          "internalType": "bytes"
        }
      ],
      "outputs": [],
      "stateMutability": "payable"
    },
    {
      "type": "function",
      "name": "owner",
      "inputs": [],
      "outputs": [
        {
          "name": "",
          "type": "address",
          "internalType": "address"
        }
      ],
      "stateMutability": "view"
    },
    {
      "type": "function",
      "name": "renounceOwnership",
      "inputs": [],
      "outputs": [],
      "stateMutability": "nonpayable"
    },
    {
      "type": "function",
      "name": "transferOwnership",
      "inputs": [
        {
          "name": "newOwner",
          "type": "address",
          "internalType": "address"
        }
      ],
      "outputs": [],
      "stateMutability": "nonpayable"
    },
    {
      "type": "function",
      "name": "withdraw",
      "inputs": [
        {
          "name": "escrow",
          "type": "address",
          "internalType": "contract IEscrow"
        },
        {
          "name": "secret",
          "type": "bytes32",
          "internalType": "bytes32"
        },
        {
          "name": "immutables",
          "type": "tuple",
          "internalType": "struct IBaseEscrow.Immutables",
          "components": [
            {
              "name": "orderHash",
              "type": "bytes32",
              "internalType": "bytes32"
            },
            {
              "name": "hashlock",
              "type": "bytes32",
              "internalType": "bytes32"
            },
            {
              "name": "maker",
              "type": "uint256",
              "internalType": "Address"
            },
            {
              "name": "taker",
              "type": "uint256",
              "internalType": "Address"
            },
            {
              "name": "token",
              "type": "uint256",
              "internalType": "Address"
            },
            {
              "name": "amount",
              "type": "uint256",
              "internalType": "uint256"
            },
            {
              "name": "safetyDeposit",
              "type": "uint256",
              "internalType": "uint256"
            },
            {
              "name": "timelocks",
              "type": "uint256",
              "internalType": "Timelocks"
            }
          ]
        }
      ],
      "outputs": [],
      "stateMutability": "nonpayable"
    },
    {
      "type": "function",
      "name": "withdrawTo",
      "inputs": [
        {
          "name": "escrow",
          "type": "address",
          "internalType": "contract IEscrowSrc"
        },
        {
          "name": "target",
          "type": "address",
          "internalType": "address"
        },
        {
          "name": "secret",
          "type": "bytes32",
          "internalType": "bytes32"
        },
        {
          "name": "immutables",
          "type": "tuple",
          "internalType": "struct IBaseEscrow.Immutables",
          "components": [
            {
              "name": "orderHash",
              "type": "bytes32",
              "internalType": "bytes32"
            },
            {
              "name": "hashlock",
              "type": "bytes32",
              "internalType": "bytes32"
            },
            {
              "name": "maker",
              "type": "uint256",
              "internalType": "Address"
            },
            {
              "name": "taker",
              "type": "uint256",
              "internalType": "Address"
            },
            {
              "name": "token",
              "type": "uint256",
              "internalType": "Address"
            },
            {
              "name": "amount",
              "type": "uint256",
              "internalType": "uint256"
            },
            {
              "name": "safetyDeposit",
              "type": "uint256",
              "internalType": "uint256"
            },
            {
              "name": "timelocks",
              "type": "uint256",
              "internalType": "Timelocks"
            }
          ]
        }
      ],
      "outputs": [],
      "stateMutability": "nonpayable"
    },
    {
      "type": "event",
      "name": "OwnershipTransferred",
      "inputs": [
        {
          "name": "previousOwner",
          "type": "address",
          "indexed": true,
          "internalType": "address"
        },
        {
          "name": "newOwner",
          "type": "address",
          "indexed": true,
          "internalType": "address"
        }
      ],
      "anonymous": false
    },
    {
      "type": "error",
      "name": "InvalidLength",
      "inputs": []
    },
    {
      "type": "error",
      "name": "LengthMismatch",
      "inputs": []
    },
    {
      "type": "error",
      "name": "NativeTokenSendingFailure",
      "inputs": []
    },
    {
      "type": "error",
      "name": "OwnableInvalidOwner",
      "inputs": [
        {
          "name": "owner",
          "type": "address",
          "internalType": "address"
        }
      ]
    },
    {
      "type": "error",
      "name": "OwnableUnauthorizedAccount",
      "inputs": [
        {
          "name": "account",
          "type": "address",
          "internalType": "address"
        }
      ]
    }
  ],
  "bytecode": {
    "object": "0x60c0346100f557601f610fa238819003918201601f19168301916001600160401b038311848410176100f9578084926060946040528339810103126100f55780516001600160a01b03919082811681036100f55760208201519183831683036100f557604001518381168091036100f55780156100dd575f80546001600160a01b03198116831782556040519516907f8be0079c531659141344cd1fd0a4f28419497f9722a3daafe3b4186f6b6457e09080a360805260a052610e94908161010e82396080518181816103150152610987015260a051816104c20152f35b604051631e4fbdf760e01b81525f6004820152602490fd5b5f80fd5b634e487b7160e01b5f52604160045260245ffdfe6040608081526004908136101561001f575b5050361561001d575f80fd5b005b5f915f3560e01c80631f3177ba14610b555780632c3c9a3714610a3557838163318b05621461092d57508063715018a6146108915780638da5cb5b1461084057838163a4fc705a1461073457508063c01a54a1146105ed578063ca218276146101775763f2fde38b146100925750610011565b346101735760207ffffffffffffffffffffffffffffffffffffffffffffffffffffffffffffffffc360112610173576100c9610d0c565b906100d2610e0e565b73ffffffffffffffffffffffffffffffffffffffff8092169283156101445750505f54827fffffffffffffffffffffffff00000000000000000000000000000000000000008216175f55167f8be0079c531659141344cd1fd0a4f28419497f9722a3daafe3b4186f6b6457e05f80a380f35b908460249251917f1e4fbdf7000000000000000000000000000000000000000000000000000000008352820152fd5b8280fd5b507ffffffffffffffffffffffffffffffffffffffffffffffffffffffffffffffffc3601916102a083126105e9576101008093126105e957827ffffffffffffffffffffffffffffffffffffffffffffffffffffffffffffffefc3601126105e9576102843567ffffffffffffffff928382116105e557366023830112156105e55781810135948486116105e157602494368688860101116105dd5761021a610e0e565b8451918201908111828210176105b257908493929184528135815260209081810197873589528582019460443586526060998a8401606435815260808501608435815260a086019160a435835260c087019960c4358b528d60e08901954260e01b7bffffffffffffffffffffffffffffffffffffffffffffffffffffffff60e4351617875273ffffffffffffffffffffffffffffffffffffffff9d51997ffb6bd47e000000000000000000000000000000000000000000000000000000008b52518c8b015251908901525160448801525160648701525160848601525160a4850152865160c48501525160e48401528a61010496858589818c7f0000000000000000000000000000000000000000000000000000000000000000165afa9485156105a857829561056c575b508180809251875af1610356610db1565b501561054457928895926103b960348c858f98966101a09e839d9b988f7fffffffffffffffffffffffffffffffffffffffff00000000000000000000000090519889961b1689860152018484013781018883820152036014810184520182610d70565b8851998a977ff497df750000000000000000000000000000000000000000000000000000000089526101a4948635908a0152610124908135908a0152610144803560448b015261016490813560648c015261018492833560848d0152873560a48d01526101c4988c60c48b359101528c60e46101e43591015261020435908d015261022435908c015261024435908b01527f08000000000000000000000000000000000000000000000000000000000000006102643517908a015288015280518093880152845b8381106105285750505090847fffffffffffffffffffffffffffffffffffffffffffffffffffffffffffffffe0601f84868585989786010152011681010301927f0000000000000000000000000000000000000000000000000000000000000000165af190811561051f57506104f4578280f35b813d8311610518575b6105078183610d70565b81010312610515575f808280f35b80fd5b503d6104fd565b513d85823e3d90fd5b8082018301518b82018601528b98508a97508c95508201610480565b8488517f8a0332d5000000000000000000000000000000000000000000000000000000008152fd5b9094508581813d83116105a1575b6105848183610d70565b8101031261059d5751888116810361059d579381610345565b5080fd5b503d61057a565b8a513d84823e3d90fd5b856041847f4e487b71000000000000000000000000000000000000000000000000000000005f52525ffd5b8780fd5b8680fd5b8580fd5b8380fd5b509034610173576101607ffffffffffffffffffffffffffffffffffffffffffffffffffffffffffffffffc3601126101735781359073ffffffffffffffffffffffffffffffffffffffff9182811680910361072c576024359283168093036107305784936101007fffffffffffffffffffffffffffffffffffffffffffffffffffffffffffffff9c36011261072c57813b1561072c57849183519485927f6c10c0c80000000000000000000000000000000000000000000000000000000084526044359084015260248301526064356044830152608435606483015260a435608483015260c43560a483015260e43560c4830152818361010492833560e484015261012493843590840152610144938435908401525af190811561072357506107135750f35b61071c90610d2f565b6105155780f35b513d84823e3d90fd5b8480fd5b5f80fd5b9290503461083c576101207ffffffffffffffffffffffffffffffffffffffffffffffffffffffffffffffffc36011261083c5761076f610d0c565b6101007fffffffffffffffffffffffffffffffffffffffffffffffffffffffffffffffdc3601126108375773ffffffffffffffffffffffffffffffffffffffff1691823b1561083757839082519384917f90d3252f0000000000000000000000000000000000000000000000000000000083526024359083015260443560248301526064356044830152608435606483015260a435608483015260c43560a483015260e43560c4830152818361010492833560e48401525af190811561072357506107135750f35b505050fd5b5050fd5b50503461059d57817ffffffffffffffffffffffffffffffffffffffffffffffffffffffffffffffffc36011261059d5773ffffffffffffffffffffffffffffffffffffffff60209254169051908152f35b833461051557807ffffffffffffffffffffffffffffffffffffffffffffffffffffffffffffffffc360112610515576108c8610e0e565b5f73ffffffffffffffffffffffffffffffffffffffff81547fffffffffffffffffffffffff000000000000000000000000000000000000000081168355167f8be0079c531659141344cd1fd0a4f28419497f9722a3daafe3b4186f6b6457e08280a380f35b9290507ffffffffffffffffffffffffffffffffffffffffffffffffffffffffffffffffc36016101208112610837576101001361083c5761010491610970610e0e565b73ffffffffffffffffffffffffffffffffffffffff7f00000000000000000000000000000000000000000000000000000000000000001692833b1561072c576101248592845195869384927fdea024e4000000000000000000000000000000000000000000000000000000008452803590840152602435602484015260443560448401526064356064840152608435608484015260a43560a484015260c43560c484015260e43560e484015280359083015234905af190811561072357506107135750f35b509034610730576101407ffffffffffffffffffffffffffffffffffffffffffffffffffffffffffffffffc36011261073057610a6f610d0c565b6101007fffffffffffffffffffffffffffffffffffffffffffffffffffffffffffffffbc3601126107305773ffffffffffffffffffffffffffffffffffffffff1691823b15610730575f9082519384917f233057030000000000000000000000000000000000000000000000000000000083526024359083015260443560248301526064356044830152608435606483015260a435608483015260c43560a483015260e43560c4830152818361010492833560e4840152610124938435908401525af1908115610b4c5750610b42575080f35b61001d9150610d2f565b513d5f823e3d90fd5b503461073057817ffffffffffffffffffffffffffffffffffffffffffffffffffffffffffffffffc3601126107305767ffffffffffffffff813581811161073057610ba39036908401610cdb565b9260249160243584811161073057610bbe9036908401610cdb565b939092610bc9610e0e565b848703610cb4575f5b878110610bdb57005b8060051b808501359073ffffffffffffffffffffffffffffffffffffffff821682036107305787831015610c89578601357fffffffffffffffffffffffffffffffffffffffffffffffffffffffffffffffe187360301811215610730578601908135918983116107305760200190823603821361073057825f80949381948f519384928337810182815203925af1610c71610db1565b5015610c7f57600101610bd2565b88513d5f823e3d90fd5b846032857f4e487b71000000000000000000000000000000000000000000000000000000005f52525ffd5b87517fff633a38000000000000000000000000000000000000000000000000000000008152fd5b9181601f840112156107305782359167ffffffffffffffff8311610730576020808501948460051b01011161073057565b6004359073ffffffffffffffffffffffffffffffffffffffff8216820361073057565b67ffffffffffffffff8111610d4357604052565b7f4e487b71000000000000000000000000000000000000000000000000000000005f52604160045260245ffd5b90601f7fffffffffffffffffffffffffffffffffffffffffffffffffffffffffffffffe0910116810190811067ffffffffffffffff821117610d4357604052565b3d15610e09573d9067ffffffffffffffff8211610d435760405191610dfe60207fffffffffffffffffffffffffffffffffffffffffffffffffffffffffffffffe0601f8401160184610d70565b82523d5f602084013e565b606090565b73ffffffffffffffffffffffffffffffffffffffff5f54163303610e2e57565b60246040517f118cdaa7000000000000000000000000000000000000000000000000000000008152336004820152fdfea264697066735822122084a3231eb2728a4347b6a74d8d4b5a36ef7544c7f26a59039c2472c14aceebd264736f6c63430008170033",
    "linkReferences": {}
  },
  "methodIdentifiers": {
    "arbitraryCalls(address[],bytes[])": "1f3177ba",
    "cancel(address,(bytes32,bytes32,uint256,uint256,uint256,uint256,uint256,uint256))": "a4fc705a",
    "deployDst((bytes32,bytes32,uint256,uint256,uint256,uint256,uint256,uint256),uint256)": "318b0562",
    "deploySrc((bytes32,bytes32,uint256,uint256,uint256,uint256,uint256,uint256),(uint256,uint256,uint256,uint256,uint256,uint256,uint256,uint256),bytes32,bytes32,uint256,uint256,bytes)": "ca218276",
    "owner()": "8da5cb5b",
    "renounceOwnership()": "715018a6",
    "transferOwnership(address)": "f2fde38b",
    "withdraw(address,bytes32,(bytes32,bytes32,uint256,uint256,uint256,uint256,uint256,uint256))": "2c3c9a37",
    "withdrawTo(address,address,bytes32,(bytes32,bytes32,uint256,uint256,uint256,uint256,uint256,uint256))": "c01a54a1"
  },
  "storageLayout": {
    "storage": [
      {
        "astId": 1280,
        "contract": "contracts/src/Resolver.sol:Resolver",
        "label": "_owner",
        "offset": 0,
        "slot": "0",
        "type": "t_address"
      }
    ],
    "types": {
      "t_address": {
        "encoding": "inplace",
        "label": "address",
        "numberOfBytes": "20"
      }
    }
  },
  "id": 14
}